{
  "contractName": "HealthcareData",
  "abi": [
    {
      "inputs": [],
      "payable": false,
      "stateMutability": "nonpayable",
      "type": "constructor"
    },
    {
      "anonymous": false,
      "inputs": [
        {
          "indexed": false,
          "name": "healthcareProviderAddress",
          "type": "address"
        }
      ],
      "name": "providerRegistered",
      "type": "event"
    },
    {
      "anonymous": false,
      "inputs": [
        {
          "indexed": false,
          "name": "provider",
          "type": "address"
        },
        {
          "indexed": false,
          "name": "beneficiary",
          "type": "address"
        },
        {
          "indexed": false,
          "name": "timestamp",
          "type": "uint256"
        },
        {
          "indexed": false,
          "name": "treatmentCode",
          "type": "uint256"
        },
        {
          "indexed": false,
          "name": "metadata",
          "type": "string"
        },
        {
          "indexed": false,
          "name": "id",
          "type": "bytes32"
        }
      ],
      "name": "newPHR",
      "type": "event"
    },
    {
      "anonymous": false,
      "inputs": [
        {
          "indexed": false,
          "name": "provider",
          "type": "address"
        },
        {
          "indexed": false,
          "name": "beneficiary",
          "type": "address"
        },
        {
          "indexed": false,
          "name": "timestamp",
          "type": "uint256"
        },
        {
          "indexed": false,
          "name": "treatmentCode",
          "type": "uint256"
        },
        {
          "indexed": false,
          "name": "metadata",
          "type": "string"
        },
        {
          "indexed": false,
          "name": "id",
          "type": "bytes32"
        }
      ],
      "name": "PaidPHR",
      "type": "event"
    },
    {
      "constant": true,
      "inputs": [],
      "name": "isOperational",
      "outputs": [
        {
          "name": "",
          "type": "bool"
        }
      ],
      "payable": false,
      "stateMutability": "view",
      "type": "function"
    },
    {
      "constant": false,
      "inputs": [
        {
          "name": "mode",
          "type": "bool"
        }
      ],
      "name": "setOperatingStatus",
      "outputs": [],
      "payable": false,
      "stateMutability": "nonpayable",
      "type": "function"
    },
    {
      "constant": false,
      "inputs": [
        {
          "name": "beneficiaryAddress",
          "type": "address"
        }
      ],
      "name": "addBeneficiary",
      "outputs": [],
      "payable": false,
      "stateMutability": "nonpayable",
      "type": "function"
    },
    {
      "constant": false,
      "inputs": [
        {
          "name": "_providerAddress",
          "type": "address"
        }
      ],
      "name": "registerHealthcareProvider",
      "outputs": [],
      "payable": false,
      "stateMutability": "nonpayable",
      "type": "function"
    },
    {
      "constant": true,
      "inputs": [],
      "name": "getHealthcareProviders",
      "outputs": [
        {
          "name": "",
          "type": "address[]"
        }
      ],
      "payable": false,
      "stateMutability": "view",
      "type": "function"
    },
    {
      "constant": false,
      "inputs": [
        {
          "name": "_provider",
          "type": "address"
        },
        {
          "name": "_timestamp",
          "type": "uint256"
        },
        {
          "name": "_beneficiary",
          "type": "address"
        },
        {
          "name": "_treatmentCode",
          "type": "uint256"
        },
        {
          "name": "_metadata",
          "type": "string"
        }
      ],
      "name": "createPHR",
      "outputs": [],
      "payable": false,
      "stateMutability": "nonpayable",
      "type": "function"
    }
  ],
  "bytecode": "0x60806040526001600060146101000a81548160ff02191690831515021790555034801561002b57600080fd5b50336000806101000a81548173ffffffffffffffffffffffffffffffffffffffff021916908373ffffffffffffffffffffffffffffffffffffffff1602179055506801158e460913d00000600160008060009054906101000a900473ffffffffffffffffffffffffffffffffffffffff1673ffffffffffffffffffffffffffffffffffffffff1673ffffffffffffffffffffffffffffffffffffffff16815260200190815260200160002081905550655af3107a4000600560008081526020019081526020016000208190555065b5e620f4800060056000600181526020019081526020016000208190555065b5e620f480006005600060028152602001908152602001600020819055506114b7806101456000396000f300608060405260043610610078576000357c0100000000000000000000000000000000000000000000000000000000900463ffffffff168063052a01f61461007d578063110466ed146100c05780635926651d146100ef5780639b2b41d014610132578063a641ad6f146101c1578063cd905dff1461022d575b600080fd5b34801561008957600080fd5b506100be600480360381019080803573ffffffffffffffffffffffffffffffffffffffff16906020019092919050505061025c565b005b3480156100cc57600080fd5b506100ed600480360381019080803515159060200190929190505050610431565b005b3480156100fb57600080fd5b50610130600480360381019080803573ffffffffffffffffffffffffffffffffffffffff1690602001909291905050506105c3565b005b34801561013e57600080fd5b506101bf600480360381019080803573ffffffffffffffffffffffffffffffffffffffff16906020019092919080359060200190929190803573ffffffffffffffffffffffffffffffffffffffff16906020019092919080359060200190929190803590602001908201803590602001919091929391929390505050610750565b005b3480156101cd57600080fd5b506101d6610d53565b6040518080602001828103825283818151815260200191508051906020019060200280838360005b838110156102195780820151818401526020810190506101fe565b505050509050019250505060405180910390f35b34801561023957600080fd5b50610242610e8b565b604051808215151515815260200191505060405180910390f35b6000809054906101000a900473ffffffffffffffffffffffffffffffffffffffff1673ffffffffffffffffffffffffffffffffffffffff163373ffffffffffffffffffffffffffffffffffffffff16141515610320576040517f08c379a000000000000000000000000000000000000000000000000000000000815260040180806020018281038252601c8152602001807f43616c6c6572206973206e6f7420636f6e7472616374206f776e65720000000081525060200191505060405180910390fd5b60028190806001815401808255809150509060018203906000526020600020016000909192909190916101000a81548173ffffffffffffffffffffffffffffffffffffffff021916908373ffffffffffffffffffffffffffffffffffffffff160217905550506000600160008373ffffffffffffffffffffffffffffffffffffffff1673ffffffffffffffffffffffffffffffffffffffff168152602001908152602001600020819055507fab255b4117ddfb9b5ee337e9eea32a1ba7d1284441f2aab410beaec3c13d8ae781604051808273ffffffffffffffffffffffffffffffffffffffff1673ffffffffffffffffffffffffffffffffffffffff16815260200191505060405180910390a150565b6000809054906101000a900473ffffffffffffffffffffffffffffffffffffffff1673ffffffffffffffffffffffffffffffffffffffff163373ffffffffffffffffffffffffffffffffffffffff161415156104f5576040517f08c379a000000000000000000000000000000000000000000000000000000000815260040180806020018281038252601c8152602001807f43616c6c6572206973206e6f7420636f6e7472616374206f776e65720000000081525060200191505060405180910390fd5b600060149054906101000a900460ff161515811515141515156105a6576040517f08c379a000000000000000000000000000000000000000000000000000000000815260040180806020018281038252602e8152602001807f4e6577206d6f64652073686f756c6420626520646966666572656e742066726f81526020017f6d2063757272656e74206d6f646500000000000000000000000000000000000081525060400191505060405180910390fd5b80600060146101000a81548160ff02191690831515021790555050565b6000809054906101000a900473ffffffffffffffffffffffffffffffffffffffff1673ffffffffffffffffffffffffffffffffffffffff163373ffffffffffffffffffffffffffffffffffffffff16141515610687576040517f08c379a000000000000000000000000000000000000000000000000000000000815260040180806020018281038252601c8152602001807f43616c6c6572206973206e6f7420636f6e7472616374206f776e65720000000081525060200191505060405180910390fd5b6107016611c37937e08000600160008060009054906101000a900473ffffffffffffffffffffffffffffffffffffffff1673ffffffffffffffffffffffffffffffffffffffff1673ffffffffffffffffffffffffffffffffffffffff16815260200190815260200160002054610ea190919063ffffffff16565b506611c37937e08000600160008373ffffffffffffffffffffffffffffffffffffffff1673ffffffffffffffffffffffffffffffffffffffff1681526020019081526020016000208190555050565b600080600060149054906101000a900460ff1615156107fd576040517f08c379a00000000000000000000000000000000000000000000000000000000081526004018080602001828103825260258152602001807f436f6e74726163742069732063757272656e746c79206e6f74206f706572617481526020017f696f6e616c00000000000000000000000000000000000000000000000000000081525060400191505060405180910390fd5b61083b88868987878080601f016020809104026020016040519081016040528093929190818152602001838380828437820191505050505050610eba565b915081866040516020018083600019166000191681526020018273ffffffffffffffffffffffffffffffffffffffff1673ffffffffffffffffffffffffffffffffffffffff166c01000000000000000000000000028152601401925050506040516020818303038152906040526040518082805190602001908083835b6020831015156108dd57805182526020820191506020810190506020830392506108b8565b6001836020036101000a0380198251168184511680821785525050505050509050019150506040518091039020905060c0604051908101604052808260001916815260200185858080601f01602080910402602001604051908101604052809392919081815260200183838082843782019150505050505081526020018681526020018973ffffffffffffffffffffffffffffffffffffffff1681526020018773ffffffffffffffffffffffffffffffffffffffff168152602001600015158152506003600083600019166000191681526020019081526020016000206000820151816000019060001916905560208201518160010190805190602001906109e692919061135f565b506040820151816002015560608201518160030160006101000a81548173ffffffffffffffffffffffffffffffffffffffff021916908373ffffffffffffffffffffffffffffffffffffffff16021790555060808201518160040160006101000a81548173ffffffffffffffffffffffffffffffffffffffff021916908373ffffffffffffffffffffffffffffffffffffffff16021790555060a08201518160040160146101000a81548160ff021916908315150217905550905050610aab81610fe8565b600460008773ffffffffffffffffffffffffffffffffffffffff1673ffffffffffffffffffffffffffffffffffffffff168152602001908152602001600020600360008360001916600019168152602001908152602001600020908060018154018082558091505090600182039060005260206000209060050201600090919290919091506000820154816000019060001916905560018201816001019080546001816001161561010002031660029004610b679291906113df565b50600282015481600201556003820160009054906101000a900473ffffffffffffffffffffffffffffffffffffffff168160030160006101000a81548173ffffffffffffffffffffffffffffffffffffffff021916908373ffffffffffffffffffffffffffffffffffffffff1602179055506004820160009054906101000a900473ffffffffffffffffffffffffffffffffffffffff168160040160006101000a81548173ffffffffffffffffffffffffffffffffffffffff021916908373ffffffffffffffffffffffffffffffffffffffff1602179055506004820160149054906101000a900460ff168160040160146101000a81548160ff0219169083151502179055505050507f790e9e3e8c77f2e6c2d4003d8cd47503d3ad131e00b11874c2884bcea74731a388878988888887604051808873ffffffffffffffffffffffffffffffffffffffff1673ffffffffffffffffffffffffffffffffffffffff1681526020018773ffffffffffffffffffffffffffffffffffffffff1673ffffffffffffffffffffffffffffffffffffffff168152602001868152602001858152602001806020018360001916600019168152602001828103825285858281815260200192508082843782019150509850505050505050505060405180910390a15050505050505050565b6060600060149054906101000a900460ff161515610dff576040517f08c379a00000000000000000000000000000000000000000000000000000000081526004018080602001828103825260258152602001807f436f6e74726163742069732063757272656e746c79206e6f74206f706572617481526020017f696f6e616c00000000000000000000000000000000000000000000000000000081525060400191505060405180910390fd5b6002805480602002602001604051908101604052809291908181526020018280548015610e8157602002820191906000526020600020905b8160009054906101000a900473ffffffffffffffffffffffffffffffffffffffff1673ffffffffffffffffffffffffffffffffffffffff1681526020019060010190808311610e37575b5050505050905090565b60008060149054906101000a900460ff16905090565b6000828211151515610eaf57fe5b818303905092915050565b600084848484604051602001808573ffffffffffffffffffffffffffffffffffffffff1673ffffffffffffffffffffffffffffffffffffffff166c0100000000000000000000000002815260140184815260200183815260200182805190602001908083835b602083101515610f455780518252602082019150602081019050602083039250610f20565b6001836020036101000a0380198251168184511680821785525050505050509050019450505050506040516020818303038152906040526040518082805190602001908083835b602083101515610fb15780518252602082019150602081019050602083039250610f8c565b6001836020036101000a03801982511681845116808217855250505050505090500191505060405180910390209050949350505050565b600080823273ffffffffffffffffffffffffffffffffffffffff1660036000836000191660001916815260200190815260200160002060030160009054906101000a900473ffffffffffffffffffffffffffffffffffffffff1673ffffffffffffffffffffffffffffffffffffffff161415156110f3576040517f08c379a00000000000000000000000000000000000000000000000000000000081526004018080602001828103825260338152602001807f4f6e6c7920746865206865616c7468636172652070726f76696465722063616e81526020017f2063616c6c20746869732066756e6374696f6e0000000000000000000000000081525060400191505060405180910390fd5b6003600085600019166000191681526020019081526020016000209250600115158360040160149054906101000a900460ff161515141515156111c4576040517f08c379a00000000000000000000000000000000000000000000000000000000081526004018080602001828103825260268152602001807f496e737572616e636520616c726561647920636c61696d656420666f7220746881526020017f697320504852000000000000000000000000000000000000000000000000000081525060400191505060405180910390fd5b600560008460020154815260200190815260200160002054915081600160008560040160009054906101000a900473ffffffffffffffffffffffffffffffffffffffff1673ffffffffffffffffffffffffffffffffffffffff1673ffffffffffffffffffffffffffffffffffffffff1681526020019081526020016000205411151561124f57600080fd5b6112c582600160008660040160009054906101000a900473ffffffffffffffffffffffffffffffffffffffff1673ffffffffffffffffffffffffffffffffffffffff1673ffffffffffffffffffffffffffffffffffffffff16815260200190815260200160002054610ea190919063ffffffff16565b5061133c82600160008660030160009054906101000a900473ffffffffffffffffffffffffffffffffffffffff1673ffffffffffffffffffffffffffffffffffffffff1673ffffffffffffffffffffffffffffffffffffffff1681526020019081526020016000205461134390919063ffffffff16565b5050505050565b6000818301905082811015151561135657fe5b80905092915050565b828054600181600116156101000203166002900490600052602060002090601f016020900481019282601f106113a057805160ff19168380011785556113ce565b828001600101855582156113ce579182015b828111156113cd5782518255916020019190600101906113b2565b5b5090506113db9190611466565b5090565b828054600181600116156101000203166002900490600052602060002090601f016020900481019282601f106114185780548555611455565b8280016001018555821561145557600052602060002091601f016020900482015b82811115611454578254825591600101919060010190611439565b5b5090506114629190611466565b5090565b61148891905b8082111561148457600081600090555060010161146c565b5090565b905600a165627a7a72305820734e2d297e7e09db0c0c15cd77aec0b3adae1037d73e57b43b610bc8706cc7e30029",
  "source": "pragma solidity ^0.4.24;\n\nimport \"../node_modules/openzeppelin-solidity/contracts/math/SafeMath.sol\";\n\ncontract HealthcareData{\n    using SafeMath for uint256;\n    /********************************************************************************************/\n    /*                                       DATA VARIABLES                                     */\n    /********************************************************************************************/\n\n    address private contractOwner; //This will be the government\n    bool private operational = true;\n    \n    //PMJAY Identification number for family\n    // mapping (uint => address[]) private familyMembers;\n    // mapping (uint => uint256) private walletBalance; //This will be the insurance coverage per family ID\n    mapping (address => uint256) private walletBalance;\n    address[] private healthcareProviders; //empanelled hospitals \n\n    struct PHR{\n        bytes32 id; //unique ID for each visit\n        string metadata;  //url for how to access the data? OR Merkle Root of data\n        uint treatmentCode; //upto 1350 \n        address provider;\n        address beneficiary; \n        bool isClaimed;\n    }\n    mapping(bytes32 => PHR) PHRDetails;\n    mapping (address => PHR[]) PHRHistory;\n    //A mapping to store the cost of the treatment\n    mapping(uint => uint256) treatmentCost;\n    /********************************************************************************************/\n    /*                                       EVENT DEFINITIONS                                  */\n    /********************************************************************************************/\n\n    event providerRegistered(address healthcareProviderAddress);\n    event newPHR(address provider, address beneficiary, uint256 timestamp,uint treatmentCode,string metadata, bytes32 id);\n    event PaidPHR(address provider, address beneficiary, uint256 timestamp,uint treatmentCode,string metadata, bytes32 id);\n\n    /**\n    * @dev Constructor\n    *      The deploying account becomes contractOwner\n    */\n    constructor () public {\n        contractOwner = msg.sender;\n        // healthcareProviders.push(msg.sender);\n        //AMOUNT OF FUNDS GOVERNMENT HAS PROMISED TO PROVIDE\n        walletBalance[contractOwner] = 20 ether;\n        //SETUP MAPPING WITH FAKE DATA\n        treatmentCost[0]=0.0001 ether;\n        treatmentCost[1]=0.0002 ether;\n        treatmentCost[2]=0.0002 ether;\n    }\n\n\n    /********************************************************************************************/\n    /*                                       FUNCTION MODIFIERS                                 */\n    /********************************************************************************************/\n\n    // Modifiers help avoid duplication of code. They are typically used to validate something\n    // before a function is allowed to be executed.\n\n\n    modifier requireIsOperational() \n    {\n        require(operational, \"Contract is currently not operational\");\n        _;  // All modifiers require an \"_\" which indicates where the function body will be added\n    }\n\n    modifier requireContractOwner()\n    {\n        require(msg.sender == contractOwner, \"Caller is not contract owner\");\n        _;\n    }\n\n    modifier requirePHRProvider(bytes32 id){\n        require(PHRDetails[id].provider==tx.origin,\"Only the healthcare provider can call this function\");\n        _;\n    }\n    modifier requireRegisteredProvider(){\n        bool isRegistered = false;\n        for(uint256 i=0;i<healthcareProviders.length;i++){\n            if(healthcareProviders[i]==msg.sender){\n                 isRegistered = true;\n            }\n        }\n        require(isRegistered==true,\"Not a valid healthcare provider\");\n        _;\n    }\n    /********************************************************************************************/\n    /*                                       UTILITY FUNCTIONS                                  */\n    /********************************************************************************************/\n\n    function isOperational() public view returns (bool){\n        return operational;\n    }\n\n    function setOperatingStatus (bool mode) external requireContractOwner {\n        require(mode != operational, \"New mode should be different from current mode\");\n        operational = mode;\n    }\n\n    //Unique hash value for a phr\n    function getTreatmentKey\n                        (\n                            address _provider,\n                            uint _treatmentCode,\n                            uint256 _timestamp,\n                            string _metadata\n                        )\n                        pure\n                        internal\n                        returns(bytes32) \n    {\n        return keccak256(abi.encodePacked(_provider, _treatmentCode, _timestamp,_metadata));\n    }\n\n    /********************************************************************************************/\n    /*                                     SMART CONTRACT FUNCTIONS                             */\n    /********************************************************************************************/\n    function addBeneficiary(address beneficiaryAddress) requireContractOwner{\n        // require(msg.value>=0.005 ether,\"Each family must get 5 lakh coverage\");\n        walletBalance[contractOwner].sub(0.005 ether);\n        walletBalance[beneficiaryAddress]=0.005 ether;\n    }\n\n    //For now only the Govt can add new healthcare Providers but this can modified for\n    // a voting m of n voting system\n    function registerHealthcareProvider (address _providerAddress) external requireContractOwner{\n        healthcareProviders.push(_providerAddress);\n        walletBalance[_providerAddress] = 0;\n        emit providerRegistered(_providerAddress);\n    }\n\n    //Get a list of all healthcare Providers\n    function getHealthcareProviders() external view requireIsOperational returns (address[]){\n        return healthcareProviders;\n    }\n\n    \n    function createPHR \n                    (\n                        address _provider,\n                        uint256 _timestamp,\n                        address _beneficiary,\n                        uint _treatmentCode,\n                        string _metadata\n                    )\n                    external\n                    requireIsOperational\n    {\n        bytes32 TreatmentKey = getTreatmentKey(_provider,_treatmentCode,_timestamp,_metadata);\n        bytes32 PHRId = keccak256(abi.encodePacked(TreatmentKey,_beneficiary));\n      \n        PHRDetails[PHRId] = PHR({\n            id: PHRId,\n            metadata: _metadata,\n            treatmentCode:_treatmentCode,\n            provider:_provider,\n            beneficiary:_beneficiary,\n            isClaimed:false\n        });\n        incrementBalance(PHRId);\n        PHRHistory[_beneficiary].push(PHRDetails[PHRId]);\n        emit newPHR(_provider,_beneficiary,_timestamp,_treatmentCode,_metadata,PHRId);\n    }\n\n\n    function incrementBalance\n                            (\n                                bytes32 _id\n                            ) \n                            private requirePHRProvider(_id)\n    {\n        PHR currPHR = PHRDetails[_id];\n        require(currPHR.isClaimed!=true,\"Insurance already claimed for this PHR\");\n        uint256 claimAmount = treatmentCost[currPHR.treatmentCode];\n        require(walletBalance[currPHR.beneficiary]>claimAmount);\n        walletBalance[currPHR.beneficiary].sub(claimAmount);\n        walletBalance[currPHR.provider].add(claimAmount);\n    }\n    // function fetchPHRs(address _beneficiary) external requireRegisteredProvider{\n\n    // }\n    // function creditProvider\n    //                         (\n    //                             address providerAddress\n    //                         )\n    //                         requireContractOwner\n    //                         payable\n    // {   \n    //    require(msg.value> walletBalance[providerAddress],\"Not sufficient amount to cover cost\");\n    //     walletBalance\n    // }\n}",
  "sourcePath": "/Users/bhavyesharma/Desktop/IITP/healthCare/contracts/HealthcareData.sol",
  "compiler": {
    "name": "solc",
    "version": "0.4.26+commit.4563c3fc.Emscripten.clang"
  },
  "schemaVersion": "3.0.10",
  "updatedAt": "2019-06-23T17:10:09.422Z",
  "devdoc": {
    "methods": {}
  },
  "userdoc": {
    "methods": {
      "addBeneficiary(address)": {
        "notice": "*****************************************************************************************"
      },
      "isOperational()": {
        "notice": "*****************************************************************************************"
      }
    }
  }
}